:020000040000FA
:060000001CEF04F01200E9
:0A000600020079080000600000000D
:100010002E000000560800008E00000023000000A3
:100020000F9E05D00F9E07AE02D0076C0F8E07C043
:1000300001F0006A136A126A860E026E036A3DEFCF
:1000400000F07F0E086EFF0E076E066E056E120042
:100050007F0E0FBEFF0E086E02D07F0E086E800E60
:10006000076E066A056AF3D70FAE04D0800E086EDD
:10007000076AF7D7086A076AF4D70150001013100F
:100080001210F8E003BEF0D701BE0CD002500310EE
:10009000EBE0D89012361336003601360206D8A0AF
:1000A0000306F2D70350D4E10228D2E012AE11D0F9
:1000B0007F0E121402E113A00CD0132AE86A00226A
:1000C000012207E3D880013200321332022A0228CB
:1000D000BFE00250C9E013C005F000C006F00134D3
:1000E000076E0230086E0732089E0FBE088E27EF9B
:1000F00000F00F6A60EC01F078EC01F00FB621EF30
:1001000000F00FA205D00FBA21EF00F028EF00F0A9
:100110000FBA34EF00F00FA005D00FB821EF00F0B8
:1001200034EF00F00FB828EF00F0036A7F0E0824C8
:10013000026EE86A03220D50025EE86A035A1A0E44
:10014000106E086A126A136A006A016A0A50055E34
:100150000B50065A0C50075A000E085A09E70A506D
:1001600005260B5006220C500722000E082201D053
:10017000128AD8900536063607360836D8901236D9
:10018000133600360136102EE1D707500610051041
:10019000D8A4128A3DEF00F00F6A60EC01F078EC11
:1001A00001F00FB621EF00F00FA205D00FB821EF3C
:1001B00000F028EF00F00FAA05D00FB021EF00F0FB
:1001C00028EF00F00FB002D00FA802D034EF00F0FB
:1001D000036A0D500824026EE86A03227E0E025E56
:1001E000E86A035A126A136A006A016A0C5007022D
:1001F000F4CF01F0F3CF00F00B500702F3501326B9
:10020000F4500022000E01220C500602F350132677
:10021000F4500022000E01220A500702F350122669
:10022000F4501322000E002201220B500602F3505C
:100230001226F4501322000E002201220C50050257
:10024000F3501226F4501322000E002201220A500D
:100250000602F4501226000E1322002201220B5037
:100260000502F4501226000E1322002201223DEF57
:1002700000F00F6A60EC01F00FB643EF01F00FA23F
:100280000AD00FB403D07F0E076E19D0800E076E10
:1002900016D0076A14D00FB0FCD7870E0860F1D7CC
:1002A0007E0E0864F6D7860E085C04E0D89007320C
:1002B000082AF9D70FA403D0076C07AEEAD71200BB
:1002C0000736083602E30F840F7E06E10F80086AC6
:1002D000076A066A056A1200082803E0D880073218
:1002E0001200D890073202E10F8212000F8612002E
:1002F0000C360D3602E30F8C0F7E06E10F880D6A77
:100300000C6A0B6A0A6A12000D2803E0D8800C32CE
:0C0310001200D8900C32EAE10F8A1200B3
:04031C00948E948C9B
:10032000AC9CAC98AC84AB8EAB9CAB98B898B89AAC
:10033000B886B892B890B06A1F0EAF6E9D98AC8A1E
:10034000120017D9FE0EDB50AD6EACA2FED7FD0E2B
:10035000DB50AD6EACA2FED7FE0EDB50F00BB0084A
:1003600005E3FC0EDB50AD6EACA2FED722D101D965
:10037000FD0EDBCFE6FFE66AFE0EDB50B009F3D0E0
:10038000F8D8FD0EDBCFE6FF070EE66EFE0EDB5063
:10039000B009E9D0EED8E66A06D9C009E4D0E9D8B8
:1003A0008EC0E6FF00D99009DED0E3D88FC0E6FF0B
:1003B000FAD88009D8D0DDD80001A96B240EAA6F25
:1003C000740EAB6F490EAC6F056A066A700E076E4D
:1003D000420E086EFB0EDBCF0AF0FC0EDBCF0BF0FB
:1003E000FD0EDBCF0CF0FE0EDBCF0DF079EC00F054
:1003F00005C018F006C019F007C01AF008C01BF0BD
:10040000A9C00AF0AAC00BF0ABC00CF0ACC00DF054
:10041000CCEC00F005C014F006C015F007C016F0D3
:1004200008C017F00A6A400E0B6E1C0E0C6E460ECA
:100430000D6E79EC00F005C0ADF006C0AEF007C05F
:10044000AFF008C0B0F0146A156A800E166E400E48
:10045000176E05C00AF006C00BF007C00CF008C00C
:100460000DF098D805C095F006C096F007C097F03B
:1004700008C098F0146A156A166A400E176EADC06F
:100480000AF0AEC00BF0AFC00CF0B0C00DF082D8D7
:1004900005C099F006C09AF007C09BF008C09CF018
:1004A000ADC09DF0AEC09EF0AFC09FF0B0C0A0F058
:1004B0000A6A0B6A0C6A62D805C0A1F006C0A2F0F5
:1004C00007C0A3F008C0A4F00A6A0B6A800E0C6E85
:1004D00055D805C0A5F006C0A6F007C0A7F008C013
:1004E000A8F067D046D8FE0EDB50730A2CE0160A3F
:1004F00021E0140A16E0190A0BE01F0A33E195C047
:1005000005F096C006F097C007F098C008F023D019
:1005100099C005F09AC006F09BC007F09CC008F097
:100520001AD09DC005F09EC006F09FC007F0A0C085
:1005300008F011D0A1C005F0A2C006F0A3C007F0DA
:10054000A4C008F008D0A5C005F0A6C006F0A7C05A
:1005500007F0A8C008F039EC01F00750E66EF5ECA2
:1005600003F0E55226D0E66EECDEE552E552E552A8
:1005700020D0D9CFE6FFE1CFD9FF1200400E0D6E9B
:10058000ADC005F0AEC006F0AFC007F0B0C008F0D7
:1005900079EF00F014C005F015C006F016C007F0A2
:1005A000086ECCEF00F0FD0EDBCFE6FFFE0EDB5059
:0A05B0001200E552E7CFD9FF120058
:0605BA00D9CFE6FFE1CFFE
:1005C000D9FF040EE1268EEC01F065C007F012ECB5
:1005D00000F005C014F006C015F007C016F008C002
:1005E00017F005C0E6FF06C0E6FF07C0E6FF08C03B
:1005F000E6FFDBEC01F0E552E552E552E55260C062
:10060000E6FFE66AB7EC01F0E552E55260C0E6FFAE
:10061000010EE66EB7EC01F0E552E55261C0E6FF6F
:10062000E66AC0EC01F0E552E55261C0E6FF010E5A
:10063000E66EC0EC01F0E552E55262C0E6FFE66A04
:10064000CAEC01F0E552E55263C0E6FF010EE66E2A
:10065000CAEC01F0E552E5523C0E6BD8DE6ADD6A69
:10066000DECF14F0DDCF15F0D890155004E60A0E59
:10067000145C000E155809E243D851D841D861D80E
:10068000DF2A010EEDE3DB2AEBD73C0EE66E010E0E
:10069000E66E57D8430E4DD8020EDB6A030EDB6AB6
:1006A000020EDBCF14F0030EDBCF15F0D8901550FF
:1006B00004E60A0E145C000E15580AE210D82FD872
:1006C0000ED83FD8020EDB2A030EEAE3DB2AE8D776
:1006D000430EE66E010EE66ED5EC01F0BBD7020EBE
:1006E000DBCFE9FF030EDBCFEAFFD890E936EA362D
:1006F000660EE926000EEA22EF50E66EE66A120068
:10070000DECFE9FFDDCFEAFFD890E936EA367A0E90
:10071000E926000EEA22EF50E66EE66A1200CFEC00
:1007200001F0E552E55264C0E6FF72EC02F0E552DA
:100730001200E66E010EE66ECFEC01F0E552E552D6
:0C0740001200D5EC01F0E552E552120069
:04074C00060EF66E31
:10075000000EF76E000EF86E00010900F550B66F3E
:100760000900F550B76F03E1B66701D03DD009002D
:10077000F550B16F0900F550B26F0900F550B36F35
:1007800009000900F550E96E0900F550EA6E09000C
:1007900009000900F550B46F0900F550B56F090064
:1007A0000900F6CFB8F0F7CFB9F0F8CFBAF0B1C082
:1007B000F6FFB2C0F7FFB3C0F8FF0001B45302E187
:1007C000B55307E00900F550EE6EB407F8E2B5073F
:1007D000F9D7B8C0F6FFB9C0F7FFBAC0F8FF0001FB
:0A07E000B607000EB75BBFD712008A
:0607EA00FF0EE3501D6E3E
:1007F000EF0E01D0F30EE76EE72EFCEF03F00C0EC8
:100800001C6EE76AE72E02EF04F01C2E01EF04F0E5
:080810001D2EFAEF03F01200A7
:08081800000EF36E00EE00F08B
:10082000080E01D81200EA6002D0EE6AFCD7F3503D
:08083000E9601200EE6AFCD73A
:0808380013EE00F023EE00F0C6
:10084000F86A0F9CA6EC03F02AEC04F0DDEC02F051
:04085000FBD71200C0
:02085400120090
:0A0856003C509080B0000700000045
:100860000000000000000000000000000000000088
:090870000000000000000000007F
:0708790000500049717837BF
:10088000003A003C003E004100430041003E003C75
:10089000003A0030003300350037003A003C003A9F
:0708A00000370035003300B2
:020000040030CA
:01000100C03E
:010003001EDE
:010006008574
:00000001FF
